{
    "contractName": "Hello",
    "abi": [
        {
            "constant": false,
            "inputs": [
                {
                    "name": "newMessage",
                    "type": "string"
                }
            ],
            "name": "setMessage",
            "outputs": [],
            "payable": false,
            "stateMutability": "nonpayable",
            "type": "function"
        },
        {
            "constant": true,
            "inputs": [],
            "name": "getMessage",
            "outputs": [
                {
                    "name": "",
                    "type": "string"
                }
            ],
            "payable": false,
            "stateMutability": "view",
            "type": "function"
        },
        {
            "constant": false,
            "inputs": [
                {
                    "name": "InitialMessage",
                    "type": "string"
                }
            ],
            "name": "Inbox",
            "outputs": [],
            "payable": false,
            "stateMutability": "nonpayable",
            "type": "function"
        },
        {
            "constant": true,
            "inputs": [],
            "name": "message",
            "outputs": [
                {
                    "name": "",
                    "type": "string"
                }
            ],
            "payable": false,
            "stateMutability": "view",
            "type": "function"
        }
    ],
    "bytecode": "608060405234801561001057600080fd5b50610360806100206000396000f3006080604052600436106100615763ffffffff7c0100000000000000000000000000000000000000000000000000000000600035041663368b87728114610066578063ce6d41de146100c1578063d4a8d9ba14610066578063e21f37ce1461014b575b600080fd5b34801561007257600080fd5b506040805160206004803580820135601f81018490048402850184019095528484526100bf9436949293602493928401919081908401838280828437509497506101609650505050505050565b005b3480156100cd57600080fd5b506100d6610177565b6040805160208082528351818301528351919283929083019185019080838360005b838110156101105781810151838201526020016100f8565b50505050905090810190601f16801561013d5780820380516001836020036101000a031916815260200191505b509250505060405180910390f35b34801561015757600080fd5b506100d661020e565b805161017390600090602084019061029c565b5050565b60008054604080516020601f60026000196101006001881615020190951694909404938401819004810282018101909252828152606093909290918301828280156102035780601f106101d857610100808354040283529160200191610203565b820191906000526020600020905b8154815290600101906020018083116101e657829003601f168201915b505050505090505b90565b6000805460408051602060026001851615610100026000190190941693909304601f810184900484028201840190925281815292918301828280156102945780601f1061026957610100808354040283529160200191610294565b820191906000526020600020905b81548152906001019060200180831161027757829003601f168201915b505050505081565b828054600181600116156101000203166002900490600052602060002090601f016020900481019282601f106102dd57805160ff191683800117855561030a565b8280016001018555821561030a579182015b8281111561030a5782518255916020019190600101906102ef565b5061031692915061031a565b5090565b61020b91905b8082111561031657600081556001016103205600a165627a7a72305820fc1f2dcd9d9ce82da4d4f09d87fa6b334e17f2b3af3b74785bfd14ffa81747f30029",
    "sourcePath": "/Users/sasibhushanupadrasta/code/solidity/hello.sol",
    "compiler": {
        "name": "solc",
        "version": "0.4.24+commit.e67f0147"
    },
    "functionHashes": {
        "Inbox(string)": "d4a8d9ba",
        "getMessage()": "ce6d41de",
        "message()": "e21f37ce",
        "setMessage(string)": "368b8772"
    },
    "gasEstimates": {
        "creation": {
            "codeDepositCost": "172800",
            "executionCost": "214",
            "totalCost": "173014"
        },
        "external": {
            "Inbox(string)": "infinite",
            "getMessage()": "infinite",
            "message()": "infinite",
            "setMessage(string)": "infinite"
        }
    }
}